:100052001200A27FC01200B27F4A1200C27F811238
:1000620000B27F611200C27F841200B27F6D120063
:10007200C27FC31200B27F651200C27F1C1200B29F
:0A0082007F1C1200B27F1C0200B2C6
:1000A200D293C2941200DE1200E31200E80200EDC5
:0500DE007F010200B2E9
:0500E3007F060200B2DF
:0500E8007F380200B2A8
:0500ED007F0F0200B2CC
:0500F2007FC00200B216
:1000B2008F08C292120003850880120007C29122A3
:1000C2008F08D292120003850880120007C2912283
:0C000300C290D2917F207E4E7D007C00D8
:08000F008F0C8E0B8D0A8C0989
:10001700E4F510F50FF50EF50DAF0CAE0BAD0AAC10
:1000270009AB10AA0FA90EA80DC312008C501BE430
:10003700FAF9F8E5102401F510EA350FF50FE9355F
:0A0047000EF50EE8350DF50D80CF23
:01005100228C
:030000000200D229
:0C00D200787FE4F6D8FD75811002005222
:10008C00EB9FF5F0EA9E42F0E99D42F0EC6480C8EB
:06009C0064809845F0228B
:00000001FF
