:1000A700D2B3C2B07FA07E867D017C001200647F40
:1000B700381200037FA07E867D017C001200647FDA
:1000C700351200037FA07E867D017C001200647FCD
:1000D700341200037FA07E867D017C0012006480BD
:0100E700BF59
:0A005A00D2B07F207E4E7D007C00B6
:080064008F0C8E0B8D0A8C0934
:10006C00E4F510F50FF50EF50DAF0CAE0BAD0AACBB
:10007C0009AB10AA0FA90EA80DC31200E8501BE47F
:10008C00FAF9F8E5102401F510EA350FF50FE9350A
:0A009C000EF50EE8350DF50D80CFCE
:0100A6002237
:100003008F08D2B3C2B0E508B4381375A0AB7580BE
:100013002312005C12005AC2B0E4F580802EE5087A
:10002300B4351375A0AB75802412005C12005AC25C
:10003300B07580088016E508B4341175A0AB7580DF
:100043002512005C12005AC2B075800112005CC216
:07005300B312005CD2B322DE
:030000000200FEFD
:0C00FE00787FE4F6D8FD7581100200A7A1
:1000E800EB9FF5F0EA9E42F0E99D42F0EC6480C88F
:0600F80064809845F0222F
:00000001FF
