:100003001200CF7F4A1200EF7F611200EF7F6D1263
:1000130000EF7F651200EF7F731200EF12011F7F65
:10002300411200EF7F6E1200EF7F641200EF7F65D5
:100033001200EF7F721200EF7F731200EF7F6F12D7
:1000430000EF7F6E1200EF7F1C1200DF7F1C120097
:10005300DF7F1C1200DF7F181200DF7F181200DF22
:070063007F181200DF80E0AE
:1000CF00D293D29412010B12011012011502011AD0
:05010B007F010200DF8E
:050110007F060200DF84
:050115007F380200DF4D
:05011A007F0E0200DF72
:05011F007FC00200DFBB
:1000DF008F08C29212006A85088012006EC29122A8
:1000EF008F08D29212006A85088012006EC2912288
:0C006A00C290D2917F207E4E7D007C0071
:080076008F0C8E0B8D0A8C0922
:10007E00E4F510F50FF50EF50DAF0CAE0BAD0AACA9
:10008E0009AB10AA0FA90EA80DC31200B9501BE49C
:10009E00FAF9F8E5102401F510EA350FF50FE935F8
:0A00AE000EF50EE8350DF50D80CFBC
:0100B8002225
:030000000200FFFC
:0C00FF00787FE4F6D8FD75811002000344
:1000B900EB9FF5F0EA9E42F0E99D42F0EC6480C8BE
:0600C90064809845F0225E
:00000001FF
