:1000BF00D2B3C2B01200747F481200031200747FD3
:1000CF00451200031200747F4C1200031200747F5C
:1000DF004C1200031200747F4F1200031200747F42
:0600EF002012000380CA8C
:080074007FA07E867D017C0067
:08007C008F0C8E0B8D0A8C091C
:10008400E4F510F50FF50EF50DAF0CAE0BAD0AACA3
:1000940009AB10AA0FA90EA80DC31200F5501BE45A
:1000A400FAF9F8E5102401F510EA350FF50FE935F2
:0A00B4000EF50EE8350DF50D80CFB6
:0100BE00221F
:100003008F08D2B3C2B075A0AA7580557F207E4EEB
:100013007D007C0012007CD2B07F207E4E7D007C70
:100023000012007CC2B0E508B44805758001802643
:10003300E508B44505758010801CE508B44C0575CA
:1000430080118012E508B44F05E4F5808008E508C7
:10005300B420037580117F207E4E7D007C0012004A
:100063007CC2B37F207E4E7D007C0012007CD2B325
:01007300226A
:0300000002010BEF
:0C010B00787FE4F6D8FD7581100200BF7B
:1000F500EB9FF5F0EA9E42F0E99D42F0EC6480C882
:0601050064809845F02221
:00000001FF
