:10000300D2B0D2B17590237DFFE4FF1200C4120079
:10001300637590257DAB7F041200C4120063759055
:10002300257D057F0A1200C41200637590277D7D2C
:100033007F0C1200C4120063759029120063E4FF61
:100043001200D71200617F041200D71200617F0AE9
:0E0053001200D71200617F0C1200D70200616C
:1000C400D2B0D2B18FA08D80120063C2B11200638E
:0300D400D2B12284
:1000D700D2B0D2B18FA0120063C2B0120063AF805A
:0200E700D2B095
:0100E90022F4
:0A0061008F907F207E4E7D007C0012
:08006B008F0B8E0A8D098C0831
:10007300E4F50FF50EF50DF50CAF0BAE0AAD09ACBB
:1000830008AB0FAA0EA90DA80CC31200AE501BE4B7
:10009300FAF9F8E50F2401F50FEA350EF50EE93507
:0A00A3000DF50DE8350CF50C80CFCB
:0100AD002230
:030000000200EA11
:0C00EA00787FE4F6D8FD75810F0200035A
:1000AE00EB9FF5F0EA9E42F0E99D42F0EC6480C8C9
:0600BE0064809845F02269
:00000001FF
